:1000000016C02EC03DC02CC02BC02AC029C028C09D
:1000100027C026C026C024C023C022C021C060C083
:1000200064C068C06BC06EC072C076C07AC0112454
:100030001FBECFEDCDBF10E0A0E6B0E0EEE8F1E0EE
:1000400002C005900D92A236B107D9F720E0A2E6D2
:10005000B0E001C01D92A536B207E1F767D095C0A8
:10006000CFCF1F920F920FB60F9211248F9381E082
:10007000809364008F910F900FBE0F901F90189582
:100080001F920F920FB60F921124109263001092DC
:1000900062000F900FBE0F901F90189517BAC19A6B
:1000A0008AB582608ABD83B7856083BF8EE189BDD2
:1000B00089B7806189BF8BB780628BBFA99A78941A
:1000C0000895E82F17BA88B3827E88BB8E2F90E000
:1000D0008830910550F5FC01E15FFF4F87B309942B
:1000E0008C6087BBC298C39A08958C6087BBC39805
:1000F000C29A0895896087BBC39A07C0896087BB8D
:10010000C39808C0816187BBC49AC0980895816173
:1001100087BBC498C09A0895846187BBC298C49A6B
:100120000895846187BBC29AC4980895B7DFC0E080
:10013000D1E0809164008823E1F3109264008C2F59
:10014000C0DF80916100813011F4CF5F01C0C150E8
:10015000C23341F410926100809163008F5F8093FD
:10016000630004C0C11102C0D0936100909163008C
:10017000809160009813DDCF85B7877E806185BF51
:0E01800085B7806285BF8895D4CFF894FFCFF5
:02018E0003016B
:00000001FF
