:1000000016C025C024C023C022C021C020C01FC0EC
:100010001EC01DC01DC01BC01AC019C018C043C0DF
:1000200047C04BC04EC051C055C059C05DC011241F
:100030001FBECFE5D2E0DEBFCDBF10E0A0E6B0E04E
:1000400001C01D92A136B107E1F753D060C0D8CFEF
:100050001F920F920FB60F9211248F9381E080931D
:1000600060008F910F900FBE0F901F90189517BAD8
:10007000C19A8AB582608ABD83B7856083BF8EE1ED
:1000800089BD89B7806189BF7894089517BA98B3FC
:10009000927E98BB90E08830910550F5FC01E15FBD
:1000A000FF4F87B309948C6087BBC298C39A0895A9
:1000B0008C6087BBC398C29A0895896087BBC39A36
:1000C00007C0896087BBC39808C0816187BBC49A99
:1000D000C0980895816187BBC498C09A08958461CF
:1000E00087BBC298C49A0895846187BBC29AC4989A
:1000F0000895BDDFC0E0809160008823E1F3109295
:1001000060008C2FC3DFCF5FC536A0F7F4CFF89423
:02011000FFCF1F
:00000001FF
