:1000000016C02EC03DC02CC02BC02AC029C028C09D
:1000100027C026C026C024C023C022C021C05CC087
:1000200060C064C067C06AC06EC072C076C0112470
:100030001FBECFEDCDBF10E0A0E6B0E0E8E8F1E0F4
:1000400002C005900D92A236B107D9F710E0A2E6E2
:10005000B0E001C01D92A436B107E1F763D092C0B1
:10006000CFCF1F920F920FB60F9211248F9381E082
:10007000809363008F910F900FBE0F901F90189583
:100080001F920F920FB60F921124109262000F90E0
:100090000FBE0F901F90189517BAC19A8AB582604B
:1000A0008ABD83B7856083BF8EE189BD89B78061D2
:1000B00089BF8BB780628BBFA99A7894089517BACD
:1000C00098B3927E98BB90E08830910550F5FC0182
:1000D000E15FFF4F87B309948C6087BBC298C39AD6
:1000E00008958C6087BBC398C29A0895896087BBC6
:1000F000C39A07C0896087BBC39808C0816187BB6A
:10010000C49AC0980895816187BBC498C09A089525
:10011000846187BBC298C49A0895846187BBC29AE0
:10012000C4980895B9DFC0E0D1E0809163008823CE
:10013000E1F3109263008C2FC2DF80916100813067
:1001400011F4CF5F01C0C150C23341F4109261007D
:10015000809162008F5F8093620004C0C11102C071
:10016000D093610090916200809160009813DDCF80
:10017000A99A85B7877E806185BF85B7806285BF74
:080180008895D3CFF894FFCF5E
:02018800030171
:00000001FF
